{
  "contractName": "Wall",
  "abi": [
    {
      "constant": true,
      "inputs": [],
      "name": "link",
      "outputs": [
        {
          "name": "",
          "type": "string"
        }
      ],
      "payable": false,
      "stateMutability": "view",
      "type": "function"
    },
    {
      "constant": true,
      "inputs": [],
      "name": "owner",
      "outputs": [
        {
          "name": "",
          "type": "address"
        }
      ],
      "payable": false,
      "stateMutability": "view",
      "type": "function"
    },
    {
      "constant": true,
      "inputs": [],
      "name": "price",
      "outputs": [
        {
          "name": "",
          "type": "uint256"
        }
      ],
      "payable": false,
      "stateMutability": "view",
      "type": "function"
    },
    {
      "constant": true,
      "inputs": [],
      "name": "author",
      "outputs": [
        {
          "name": "",
          "type": "address"
        }
      ],
      "payable": false,
      "stateMutability": "view",
      "type": "function"
    },
    {
      "constant": true,
      "inputs": [],
      "name": "writing",
      "outputs": [
        {
          "name": "",
          "type": "string"
        }
      ],
      "payable": false,
      "stateMutability": "view",
      "type": "function"
    },
    {
      "inputs": [],
      "payable": false,
      "stateMutability": "nonpayable",
      "type": "constructor"
    },
    {
      "constant": false,
      "inputs": [
        {
          "name": "_text",
          "type": "string"
        },
        {
          "name": "_link",
          "type": "string"
        }
      ],
      "name": "changeWriting",
      "outputs": [],
      "payable": true,
      "stateMutability": "payable",
      "type": "function"
    }
  ],
  "bytecode": "0x608060405234801561001057600080fd5b50336000806101000a81548173ffffffffffffffffffffffffffffffffffffffff021916908373ffffffffffffffffffffffffffffffffffffffff160217905550662386f26fc10000600481905550606060405190810160405280602e81526020017f446f6e2774206c696b652074686973206d6573736167653f2050617920746f2081526020017f7772697465206f7665722069742e000000000000000000000000000000000000815250600290805190602001906100d19291906100d7565b5061017c565b828054600181600116156101000203166002900490600052602060002090601f016020900481019282601f1061011857805160ff1916838001178555610146565b82800160010185558215610146579182015b8281111561014557825182559160200191906001019061012a565b5b5090506101539190610157565b5090565b61017991905b8082111561017557600081600090555060010161015d565b5090565b90565b6106a58061018b6000396000f300608060405260043610610078576000357c0100000000000000000000000000000000000000000000000000000000900463ffffffff1680631c4695f41461007d5780638da5cb5b1461010d578063a035b1fe14610164578063a6c3e6b91461018f578063b011e753146101e6578063bf3318be14610276575b600080fd5b34801561008957600080fd5b50610092610318565b6040518080602001828103825283818151815260200191508051906020019080838360005b838110156100d25780820151818401526020810190506100b7565b50505050905090810190601f1680156100ff5780820380516001836020036101000a031916815260200191505b509250505060405180910390f35b34801561011957600080fd5b506101226103b6565b604051808273ffffffffffffffffffffffffffffffffffffffff1673ffffffffffffffffffffffffffffffffffffffff16815260200191505060405180910390f35b34801561017057600080fd5b506101796103db565b6040518082815260200191505060405180910390f35b34801561019b57600080fd5b506101a46103e1565b604051808273ffffffffffffffffffffffffffffffffffffffff1673ffffffffffffffffffffffffffffffffffffffff16815260200191505060405180910390f35b3480156101f257600080fd5b506101fb610407565b6040518080602001828103825283818151815260200191508051906020019080838360005b8381101561023b578082015181840152602081019050610220565b50505050905090810190601f1680156102685780820380516001836020036101000a031916815260200191505b509250505060405180910390f35b610316600480360381019080803590602001908201803590602001908080601f0160208091040260200160405190810160405280939291908181526020018383808284378201915050505050509192919290803590602001908201803590602001908080601f01602080910402602001604051908101604052809392919081815260200183838082843782019150505050505091929192905050506104a5565b005b60038054600181600116156101000203166002900480601f0160208091040260200160405190810160405280929190818152602001828054600181600116156101000203166002900480156103ae5780601f10610383576101008083540402835291602001916103ae565b820191906000526020600020905b81548152906001019060200180831161039157829003601f168201915b505050505081565b6000809054906101000a900473ffffffffffffffffffffffffffffffffffffffff1681565b60045481565b600160009054906101000a900473ffffffffffffffffffffffffffffffffffffffff1681565b60028054600181600116156101000203166002900480601f01602080910402602001604051908101604052809291908181526020018280546001816001161561010002031660029004801561049d5780601f106104725761010080835404028352916020019161049d565b820191906000526020600020905b81548152906001019060200180831161048057829003601f168201915b505050505081565b6101186104b1836105c3565b111515156104be57600080fd5b60045434101515156104cf57600080fd5b600a6004548115156104dd57fe5b04600454016004819055506000809054906101000a900473ffffffffffffffffffffffffffffffffffffffff1673ffffffffffffffffffffffffffffffffffffffff166108fc349081150290604051600060405180830381858888f1935050505015801561054f573d6000803e3d6000fd5b5081600290805190602001906105669291906105d4565b50806003908051906020019061057d9291906105d4565b5033600160006101000a81548173ffffffffffffffffffffffffffffffffffffffff021916908373ffffffffffffffffffffffffffffffffffffffff1602179055505050565b600060608290508051915050919050565b828054600181600116156101000203166002900490600052602060002090601f016020900481019282601f1061061557805160ff1916838001178555610643565b82800160010185558215610643579182015b82811115610642578251825591602001919060010190610627565b5b5090506106509190610654565b5090565b61067691905b8082111561067257600081600090555060010161065a565b5090565b905600a165627a7a72305820ad26abf5e09cdc7df09892a378594eda2a8be5a9c9a6491c7c82dfa526cbfb020029",
  "source": "pragma solidity ^0.4.23;\n\ncontract Wall {\n  address public owner;\n  address public author;\n  string public writing;\n  string public link;\n  uint public price;\n\n  constructor() public {\n    //Set owner address\n    owner = msg.sender;\n    //Set starting price in wei\n    price = 10000000000000000;\n    //Set first message\n    writing = \"Don't like this message? Pay to write over it.\";\n  }\n\n  function changeWriting(string _text, string _link) public payable{\n    require(getStringLength(_text) <= 280);\n    require(msg.value >= price);\n    //Update price\n    price = price + price/10;\n    //Send payment to owner\n    owner.transfer(msg.value);\n    //Replace writing on the wall\n    writing = _text;\n    link = _link;\n    //Set author\n    author = msg.sender;\n  }\n\n  function getStringLength(string _s) internal pure returns (uint) {\n    bytes memory bs = bytes(_s);\n    return bs.length;\n  }\n}\n",
  "sourcePath": "/home/peter/Documents/Work/Ethereum/dapps/writing-on-the-wall/contracts/Wall.sol",
  "compiler": {
    "name": "solc",
    "version": "0.4.24+commit.e67f0147.Emscripten.clang"
  },
  "schemaVersion": "2.0.1",
  "updatedAt": "2018-08-06T23:13:06.172Z"
}